{
  "contractName": "EscrowSmartContract",
  "abi": [
    {
      "constant": false,
      "inputs": [
        {
          "name": "_id",
          "type": "uint256"
        }
      ],
      "name": "pickUpPledge",
      "outputs": [],
      "payable": false,
      "stateMutability": "nonpayable",
      "type": "function"
    },
    {
      "constant": true,
      "inputs": [
        {
          "name": "",
          "type": "uint256"
        }
      ],
      "name": "pledges",
      "outputs": [
        {
          "name": "id",
          "type": "uint256"
        },
        {
          "name": "renter",
          "type": "address"
        },
        {
          "name": "houseowner",
          "type": "address"
        },
        {
          "name": "amount",
          "type": "uint256"
        },
        {
          "name": "pickedUp",
          "type": "bool"
        }
      ],
      "payable": false,
      "stateMutability": "view",
      "type": "function"
    },
    {
      "constant": true,
      "inputs": [],
      "name": "getAvailablePledges",
      "outputs": [
        {
          "name": "",
          "type": "uint256[]"
        }
      ],
      "payable": false,
      "stateMutability": "view",
      "type": "function"
    },
    {
      "constant": false,
      "inputs": [
        {
          "name": "_amount",
          "type": "uint256"
        },
        {
          "name": "_receiver",
          "type": "address"
        }
      ],
      "name": "putInPledge",
      "outputs": [],
      "payable": false,
      "stateMutability": "nonpayable",
      "type": "function"
    },
    {
      "inputs": [
        {
          "name": "_RETokenAddress",
          "type": "address"
        }
      ],
      "payable": false,
      "stateMutability": "nonpayable",
      "type": "constructor"
    },
    {
      "anonymous": false,
      "inputs": [
        {
          "indexed": true,
          "name": "_id",
          "type": "uint256"
        },
        {
          "indexed": true,
          "name": "_renter",
          "type": "address"
        },
        {
          "indexed": true,
          "name": "_houseowner",
          "type": "address"
        },
        {
          "indexed": false,
          "name": "_amount",
          "type": "uint256"
        }
      ],
      "name": "LogPutInPledge",
      "type": "event"
    },
    {
      "anonymous": false,
      "inputs": [
        {
          "indexed": true,
          "name": "_id",
          "type": "uint256"
        },
        {
          "indexed": true,
          "name": "_renter",
          "type": "address"
        },
        {
          "indexed": true,
          "name": "_houseowner",
          "type": "address"
        },
        {
          "indexed": false,
          "name": "_amount",
          "type": "uint256"
        }
      ],
      "name": "LogPickUpPledge",
      "type": "event"
    }
  ],
  "bytecode": "0x6060604052341561000f57600080fd5b604051602080610abc83398101604052808051906020019091905050806000806101000a81548173ffffffffffffffffffffffffffffffffffffffff021916908373ffffffffffffffffffffffffffffffffffffffff16021790555050610a418061007b6000396000f300606060405260043610610062576000357c0100000000000000000000000000000000000000000000000000000000900463ffffffff16806310eeea8a14610067578063ac1240811461008a578063affb0fc514610139578063f3b95609146101a3575b600080fd5b341561007257600080fd5b61008860048080359060200190919050506101e5565b005b341561009557600080fd5b6100ab600480803590602001909190505061043f565b604051808681526020018573ffffffffffffffffffffffffffffffffffffffff1673ffffffffffffffffffffffffffffffffffffffff1681526020018473ffffffffffffffffffffffffffffffffffffffff1673ffffffffffffffffffffffffffffffffffffffff168152602001838152602001821515151581526020019550505050505060405180910390f35b341561014457600080fd5b61014c6104c2565b6040518080602001828103825283818151815260200191508051906020019060200280838360005b8381101561018f578082015181840152602081019050610174565b505050509050019250505060405180910390f35b34156101ae57600080fd5b6101e3600480803590602001909190803573ffffffffffffffffffffffffffffffffffffffff16906020019091905050610609565b005b600080821180156101f857506002548211155b151561020357600080fd5b6001600083815260200190815260200160002090503373ffffffffffffffffffffffffffffffffffffffff168160020160009054906101000a900473ffffffffffffffffffffffffffffffffffffffff1673ffffffffffffffffffffffffffffffffffffffff1614151561027657600080fd5b600015158160040160009054906101000a900460ff16151514151561029a57600080fd5b6000809054906101000a900473ffffffffffffffffffffffffffffffffffffffff1673ffffffffffffffffffffffffffffffffffffffff1663a9059cbb3383600301546000604051602001526040518363ffffffff167c0100000000000000000000000000000000000000000000000000000000028152600401808373ffffffffffffffffffffffffffffffffffffffff1673ffffffffffffffffffffffffffffffffffffffff16815260200182815260200192505050602060405180830381600087803b151561036a57600080fd5b6102c65a03f1151561037b57600080fd5b50505060405180519050151561039057600080fd5b60018160040160006101000a81548160ff0219169083151502179055503373ffffffffffffffffffffffffffffffffffffffff168160010160009054906101000a900473ffffffffffffffffffffffffffffffffffffffff1673ffffffffffffffffffffffffffffffffffffffff16837f079d9f61013b644ca040420703898166c423b08603514628947d704a7040c93a84600301546040518082815260200191505060405180910390a45050565b60016020528060005260406000206000915090508060000154908060010160009054906101000a900473ffffffffffffffffffffffffffffffffffffffff16908060020160009054906101000a900473ffffffffffffffffffffffffffffffffffffffff16908060030154908060040160009054906101000a900460ff16905085565b6104ca610a01565b6104d2610a01565b6000806104dd610a01565b60006002546040518059106104ef5750595b9080825280602002602001820160405250945060009350600192505b6002548311151561058f57600015156001600085815260200190815260200160002060040160009054906101000a900460ff1615151415610582576001600084815260200190815260200160002060000154858581518110151561056b57fe5b906020019060200201818152505083806001019450505b828060010193505061050b565b8360405180591061059d5750595b90808252806020026020018201604052509150600090505b838110156105fe5784818151811015156105cb57fe5b9060200190602002015182828151811015156105e357fe5b906020019060200201818152505080806001019150506105b5565b819550505050505090565b816000809054906101000a900473ffffffffffffffffffffffffffffffffffffffff1673ffffffffffffffffffffffffffffffffffffffff1663dd62ed3e33306000604051602001526040518363ffffffff167c0100000000000000000000000000000000000000000000000000000000028152600401808373ffffffffffffffffffffffffffffffffffffffff1673ffffffffffffffffffffffffffffffffffffffff1681526020018273ffffffffffffffffffffffffffffffffffffffff1673ffffffffffffffffffffffffffffffffffffffff16815260200192505050602060405180830381600087803b151561070257600080fd5b6102c65a03f1151561071357600080fd5b505050604051805190501015151561072a57600080fd5b6000809054906101000a900473ffffffffffffffffffffffffffffffffffffffff1673ffffffffffffffffffffffffffffffffffffffff166323b872dd3330856000604051602001526040518463ffffffff167c0100000000000000000000000000000000000000000000000000000000028152600401808473ffffffffffffffffffffffffffffffffffffffff1673ffffffffffffffffffffffffffffffffffffffff1681526020018373ffffffffffffffffffffffffffffffffffffffff1673ffffffffffffffffffffffffffffffffffffffff1681526020018281526020019350505050602060405180830381600087803b151561082a57600080fd5b6102c65a03f1151561083b57600080fd5b50505060405180519050151561085057600080fd5b60026000815480929190600101919050555060a06040519081016040528060025481526020013373ffffffffffffffffffffffffffffffffffffffff1681526020018273ffffffffffffffffffffffffffffffffffffffff168152602001838152602001600015158152506001600060025481526020019081526020016000206000820151816000015560208201518160010160006101000a81548173ffffffffffffffffffffffffffffffffffffffff021916908373ffffffffffffffffffffffffffffffffffffffff16021790555060408201518160020160006101000a81548173ffffffffffffffffffffffffffffffffffffffff021916908373ffffffffffffffffffffffffffffffffffffffff1602179055506060820151816003015560808201518160040160006101000a81548160ff0219169083151502179055509050508073ffffffffffffffffffffffffffffffffffffffff163373ffffffffffffffffffffffffffffffffffffffff166002547fbcc065e7deb06737c1fd74d8de15e6b0b41d9851edba81d3d95e693403ccf4ae856040518082815260200191505060405180910390a45050565b6020604051908101604052806000815250905600a165627a7a72305820c955eb44002946b74142736bc87cce86ccfa036800cb989a5fc16ab54b8292b50029",
  "source": "pragma solidity ^0.4.19;\n\ninterface tokenRecipient {\n  function receiveApproval(\n    address _from, uint256 _value, address _token, bytes _extraData\n  ) external;\n}\n\ncontract REToken {\n    // Public variables of the token\n    uint8 public decimals = 18;\n    // 18 decimals is the strongly suggested default, avoid changing it\n    uint256 public totalSupply;               // How many decimals to show. To be standard complicant keep it 18\n    string public symbol = \"RET\";\n    uint256 public retokenPrice = 200000000000000000;       // 0.2 ether\n\n    // This creates an array with all balances\n    mapping (address => uint256) public balanceOf;\n    mapping (address => mapping (address => uint256)) public allowance;\n\n    // This generates a public event on the blockchain that will notify clients\n    event Transfer(address indexed from, address indexed to, uint256 value);\n\n    // This generates a public event on the blockchain that will notify clients\n    event Approval(address indexed _owner, address indexed _spender, uint256 _value);\n\n    /**\n     * Constructor function\n     *\n     * Initializes contract with initial supply tokens to the creator of the contract\n     */\n    function REToken(uint256 initialSupply) public {\n        totalSupply = initialSupply * 10 ** uint256(decimals);        // Update total supply with the decimal amount\n        balanceOf[this] = totalSupply;                                // Set the symbol for display purposes\n    }\n\n    /**\n     * Internal transfer, only can be called by this contract\n     */\n    function _transfer(address _from, address _to, uint _value) internal {\n        // Prevent transfer to 0x0 address. Use burn() instead\n        require(_to != 0x0);\n        // Check if the sender has enough\n        require(balanceOf[_from] >= _value);\n        // Check for overflows\n        require(balanceOf[_to] + _value >= balanceOf[_to]);\n        // Save this for an assertion in the future\n        uint previousBalances = balanceOf[_from] + balanceOf[_to];\n        // Subtract from the sender\n        balanceOf[_from] -= _value;\n        // Add the same to the recipient\n        balanceOf[_to] += _value;\n        Transfer(_from, _to, _value);\n        // Asserts are used to use static analysis to find bugs in your code. They should never fail\n        assert(balanceOf[_from] + balanceOf[_to] == previousBalances);\n    }\n\n    /**\n     * Transfer tokens\n     *\n     * Send `_value` tokens to `_to` from your account\n     *\n     * @param _to The address of the recipient\n     * @param _value the amount to send\n     */\n    function transfer(address _to, uint256 _value) public returns (bool success) {\n        _transfer(msg.sender, _to, _value);\n        return true;\n    }\n\n    /**\n     * Transfer tokens from other address\n     *\n     * Send `_value` tokens to `_to` on behalf of `_from`\n     *\n     * @param _from The address of the sender\n     * @param _to The address of the recipient\n     * @param _value the amount to send\n     */\n    function transferFrom(address _from, address _to, uint256 _value) public returns (bool success) {\n        require(_value <= allowance[_from][msg.sender]);     // Check allowance\n        allowance[_from][msg.sender] -= _value;\n        _transfer(_from, _to, _value);\n        return true;\n    }\n\n    /**\n     * Set allowance for other address\n     *\n     * Allows `_spender` to spend no more than `_value` tokens on your behalf\n     *\n     * @param _spender The address authorized to spend\n     * @param _value the max amount they can spend\n     */\n    function approve(address _spender, uint256 _value) public\n        returns (bool success) {\n        allowance[msg.sender][_spender] = _value;\n        Approval(msg.sender, _spender, _value);\n        return true;\n    }\n\n    function buy() payable public returns (uint amount) {\n        amount = msg.value / retokenPrice;\n        require(balanceOf[this] >= amount);\n        _transfer(this, msg.sender, amount);\n        return amount;\n    }\n\n    function sell(uint amount) public returns (uint revenue){\n        require(balanceOf[msg.sender] >= amount);\n        _transfer(msg.sender, this, amount);\n        revenue = amount * retokenPrice;\n        require(msg.sender.send(revenue));\n        return revenue;\n    }\n}\n\ncontract EscrowSmartContract {\n  REToken retoken;\n\n  struct Pledge {\n    uint id;\n    address renter;\n    address houseowner;\n    uint amount;\n    bool pickedUp;\n  }\n\n  mapping (uint => Pledge) public pledges;\n  uint pledgeCounter;\n\n  //events\n  event LogPutInPledge(\n    uint indexed _id,\n    address indexed _renter,\n    address indexed _houseowner,\n    uint _amount\n  );\n  event LogPickUpPledge(\n    uint indexed _id,\n    address indexed _renter,\n    address indexed _houseowner,\n    uint _amount\n  );\n\n  function EscrowSmartContract(address _RETokenAddress) public {\n    retoken = REToken(_RETokenAddress);\n  }\n\n  function putInPledge(uint _amount, address _receiver) public {\n    require(retoken.allowance(msg.sender, address(this)) >= _amount);\n    require(retoken.transferFrom(msg.sender, address(this), _amount));\n\n    pledgeCounter++;\n\n    pledges[pledgeCounter] = Pledge(\n      pledgeCounter,\n      msg.sender,\n      _receiver,\n      _amount,\n      false\n    );\n\n    LogPutInPledge(pledgeCounter, msg.sender, _receiver, _amount);\n  }\n\n  function pickUpPledge(uint _id) public {\n    require(_id > 0 && _id <= pledgeCounter);\n    Pledge storage pledge = pledges[_id];\n    require(pledge.houseowner == msg.sender);\n    require(pledge.pickedUp == false);\n\n    require(retoken.transfer(msg.sender, pledge.amount));\n\n    pledge.pickedUp = true;\n\n    LogPickUpPledge(_id, pledge.renter, msg.sender, pledge.amount);\n  }\n\n  //returns pledges ids, putted by msg.sender\n  function getAvailablePledges() public view returns (uint[]) {\n    uint[] memory pledgesId = new uint[](pledgeCounter);\n    uint numberOfAvailablePledges = 0;\n\n    for (uint i = 1; i <= pledgeCounter; i++){\n      if (pledges[i].pickedUp == false){\n        pledgesId[numberOfAvailablePledges] = pledges[i].id;\n        numberOfAvailablePledges++;\n      }\n    }\n\n    uint[] memory availablePledgeIds = new uint[](numberOfAvailablePledges);\n    for(uint j = 0; j < numberOfAvailablePledges; j++){\n      availablePledgeIds[j] = pledgesId[j];\n    }\n\n    return availablePledgeIds;\n  }\n}\n",
  "sourcePath": "/home/userr/EscrowSmartContract/contracts/Contracts.sol",
  "compiler": {
    "name": "solc",
    "version": "0.4.19+commit.c4cbbb05.Emscripten.clang"
  },
  "schemaVersion": "2.0.0",
  "updatedAt": "2018-07-24T20:46:35.776Z"
}