{
  "contractName": "REToken",
  "abi": [
    {
      "constant": false,
      "inputs": [
        {
          "name": "_spender",
          "type": "address"
        },
        {
          "name": "_value",
          "type": "uint256"
        }
      ],
      "name": "approve",
      "outputs": [
        {
          "name": "success",
          "type": "bool"
        }
      ],
      "payable": false,
      "stateMutability": "nonpayable",
      "type": "function"
    },
    {
      "constant": true,
      "inputs": [],
      "name": "totalSupply",
      "outputs": [
        {
          "name": "",
          "type": "uint256"
        }
      ],
      "payable": false,
      "stateMutability": "view",
      "type": "function"
    },
    {
      "constant": false,
      "inputs": [
        {
          "name": "_from",
          "type": "address"
        },
        {
          "name": "_to",
          "type": "address"
        },
        {
          "name": "_value",
          "type": "uint256"
        }
      ],
      "name": "transferFrom",
      "outputs": [
        {
          "name": "success",
          "type": "bool"
        }
      ],
      "payable": false,
      "stateMutability": "nonpayable",
      "type": "function"
    },
    {
      "constant": true,
      "inputs": [],
      "name": "decimals",
      "outputs": [
        {
          "name": "",
          "type": "uint8"
        }
      ],
      "payable": false,
      "stateMutability": "view",
      "type": "function"
    },
    {
      "constant": true,
      "inputs": [
        {
          "name": "",
          "type": "address"
        }
      ],
      "name": "balanceOf",
      "outputs": [
        {
          "name": "",
          "type": "uint256"
        }
      ],
      "payable": false,
      "stateMutability": "view",
      "type": "function"
    },
    {
      "constant": true,
      "inputs": [],
      "name": "symbol",
      "outputs": [
        {
          "name": "",
          "type": "string"
        }
      ],
      "payable": false,
      "stateMutability": "view",
      "type": "function"
    },
    {
      "constant": false,
      "inputs": [],
      "name": "buy",
      "outputs": [
        {
          "name": "amount",
          "type": "uint256"
        }
      ],
      "payable": true,
      "stateMutability": "payable",
      "type": "function"
    },
    {
      "constant": false,
      "inputs": [
        {
          "name": "_to",
          "type": "address"
        },
        {
          "name": "_value",
          "type": "uint256"
        }
      ],
      "name": "transfer",
      "outputs": [
        {
          "name": "success",
          "type": "bool"
        }
      ],
      "payable": false,
      "stateMutability": "nonpayable",
      "type": "function"
    },
    {
      "constant": true,
      "inputs": [],
      "name": "retokenPrice",
      "outputs": [
        {
          "name": "",
          "type": "uint256"
        }
      ],
      "payable": false,
      "stateMutability": "view",
      "type": "function"
    },
    {
      "constant": true,
      "inputs": [
        {
          "name": "",
          "type": "address"
        },
        {
          "name": "",
          "type": "address"
        }
      ],
      "name": "allowance",
      "outputs": [
        {
          "name": "",
          "type": "uint256"
        }
      ],
      "payable": false,
      "stateMutability": "view",
      "type": "function"
    },
    {
      "constant": false,
      "inputs": [
        {
          "name": "amount",
          "type": "uint256"
        }
      ],
      "name": "sell",
      "outputs": [
        {
          "name": "revenue",
          "type": "uint256"
        }
      ],
      "payable": false,
      "stateMutability": "nonpayable",
      "type": "function"
    },
    {
      "inputs": [
        {
          "name": "initialSupply",
          "type": "uint256"
        }
      ],
      "payable": false,
      "stateMutability": "nonpayable",
      "type": "constructor"
    },
    {
      "anonymous": false,
      "inputs": [
        {
          "indexed": true,
          "name": "from",
          "type": "address"
        },
        {
          "indexed": true,
          "name": "to",
          "type": "address"
        },
        {
          "indexed": false,
          "name": "value",
          "type": "uint256"
        }
      ],
      "name": "Transfer",
      "type": "event"
    },
    {
      "anonymous": false,
      "inputs": [
        {
          "indexed": true,
          "name": "_owner",
          "type": "address"
        },
        {
          "indexed": true,
          "name": "_spender",
          "type": "address"
        },
        {
          "indexed": false,
          "name": "_value",
          "type": "uint256"
        }
      ],
      "name": "Approval",
      "type": "event"
    }
  ],
  "bytecode": "0x606060405260126000806101000a81548160ff021916908360ff1602179055506040805190810160405280600381526020017f52455400000000000000000000000000000000000000000000000000000000008152506002908051906020019061006a929190610107565b506702c68af0bb140000600355341561008257600080fd5b604051602080610d46833981016040528080519060200190919050506000809054906101000a900460ff1660ff16600a0a8102600181905550600154600460003073ffffffffffffffffffffffffffffffffffffffff1673ffffffffffffffffffffffffffffffffffffffff16815260200190815260200160002081905550506101ac565b828054600181600116156101000203166002900490600052602060002090601f016020900481019282601f1061014857805160ff1916838001178555610176565b82800160010185558215610176579182015b8281111561017557825182559160200191906001019061015a565b5b5090506101839190610187565b5090565b6101a991905b808211156101a557600081600090555060010161018d565b5090565b90565b610b8b806101bb6000396000f3006060604052600436106100af576000357c0100000000000000000000000000000000000000000000000000000000900463ffffffff168063095ea7b3146100b457806318160ddd1461010e57806323b872dd14610137578063313ce567146101b057806370a08231146101df57806395d89b411461022c578063a6f2ae3a146102ba578063a9059cbb146102d8578063aabd3ed214610332578063dd62ed3e1461035b578063e4849b32146103c7575b600080fd5b34156100bf57600080fd5b6100f4600480803573ffffffffffffffffffffffffffffffffffffffff169060200190919080359060200190919050506103fe565b604051808215151515815260200191505060405180910390f35b341561011957600080fd5b6101216104f0565b6040518082815260200191505060405180910390f35b341561014257600080fd5b610196600480803573ffffffffffffffffffffffffffffffffffffffff1690602001909190803573ffffffffffffffffffffffffffffffffffffffff169060200190919080359060200190919050506104f6565b604051808215151515815260200191505060405180910390f35b34156101bb57600080fd5b6101c3610623565b604051808260ff1660ff16815260200191505060405180910390f35b34156101ea57600080fd5b610216600480803573ffffffffffffffffffffffffffffffffffffffff16906020019091905050610635565b6040518082815260200191505060405180910390f35b341561023757600080fd5b61023f61064d565b6040518080602001828103825283818151815260200191508051906020019080838360005b8381101561027f578082015181840152602081019050610264565b50505050905090810190601f1680156102ac5780820380516001836020036101000a031916815260200191505b509250505060405180910390f35b6102c26106eb565b6040518082815260200191505060405180910390f35b34156102e357600080fd5b610318600480803573ffffffffffffffffffffffffffffffffffffffff1690602001909190803590602001909190505061075c565b604051808215151515815260200191505060405180910390f35b341561033d57600080fd5b610345610773565b6040518082815260200191505060405180910390f35b341561036657600080fd5b6103b1600480803573ffffffffffffffffffffffffffffffffffffffff1690602001909190803573ffffffffffffffffffffffffffffffffffffffff16906020019091905050610779565b6040518082815260200191505060405180910390f35b34156103d257600080fd5b6103e8600480803590602001909190505061079e565b6040518082815260200191505060405180910390f35b600081600560003373ffffffffffffffffffffffffffffffffffffffff1673ffffffffffffffffffffffffffffffffffffffff16815260200190815260200160002060008573ffffffffffffffffffffffffffffffffffffffff1673ffffffffffffffffffffffffffffffffffffffff168152602001908152602001600020819055508273ffffffffffffffffffffffffffffffffffffffff163373ffffffffffffffffffffffffffffffffffffffff167f8c5be1e5ebec7d5bd14f71427d1e84f3dd0314c0f7b2291e5b200ac8c7c3b925846040518082815260200191505060405180910390a36001905092915050565b60015481565b6000600560008573ffffffffffffffffffffffffffffffffffffffff1673ffffffffffffffffffffffffffffffffffffffff16815260200190815260200160002060003373ffffffffffffffffffffffffffffffffffffffff1673ffffffffffffffffffffffffffffffffffffffff16815260200190815260200160002054821115151561058357600080fd5b81600560008673ffffffffffffffffffffffffffffffffffffffff1673ffffffffffffffffffffffffffffffffffffffff16815260200190815260200160002060003373ffffffffffffffffffffffffffffffffffffffff1673ffffffffffffffffffffffffffffffffffffffff16815260200190815260200160002060008282540392505081905550610618848484610848565b600190509392505050565b6000809054906101000a900460ff1681565b60046020528060005260406000206000915090505481565b60028054600181600116156101000203166002900480601f0160208091040260200160405190810160405280929190818152602001828054600181600116156101000203166002900480156106e35780601f106106b8576101008083540402835291602001916106e3565b820191906000526020600020905b8154815290600101906020018083116106c657829003601f168201915b505050505081565b6000600354348115156106fa57fe5b04905080600460003073ffffffffffffffffffffffffffffffffffffffff1673ffffffffffffffffffffffffffffffffffffffff168152602001908152602001600020541015151561074b57600080fd5b610756303383610848565b80905090565b6000610769338484610848565b6001905092915050565b60035481565b6005602052816000526040600020602052806000526040600020600091509150505481565b600081600460003373ffffffffffffffffffffffffffffffffffffffff1673ffffffffffffffffffffffffffffffffffffffff16815260200190815260200160002054101515156107ee57600080fd5b6107f9333084610848565b600354820290503373ffffffffffffffffffffffffffffffffffffffff166108fc829081150290604051600060405180830381858888f19350505050151561084057600080fd5b809050919050565b6000808373ffffffffffffffffffffffffffffffffffffffff161415151561086f57600080fd5b81600460008673ffffffffffffffffffffffffffffffffffffffff1673ffffffffffffffffffffffffffffffffffffffff16815260200190815260200160002054101515156108bd57600080fd5b600460008473ffffffffffffffffffffffffffffffffffffffff1673ffffffffffffffffffffffffffffffffffffffff1681526020019081526020016000205482600460008673ffffffffffffffffffffffffffffffffffffffff1673ffffffffffffffffffffffffffffffffffffffff16815260200190815260200160002054011015151561094c57600080fd5b600460008473ffffffffffffffffffffffffffffffffffffffff1673ffffffffffffffffffffffffffffffffffffffff16815260200190815260200160002054600460008673ffffffffffffffffffffffffffffffffffffffff1673ffffffffffffffffffffffffffffffffffffffff1681526020019081526020016000205401905081600460008673ffffffffffffffffffffffffffffffffffffffff1673ffffffffffffffffffffffffffffffffffffffff1681526020019081526020016000206000828254039250508190555081600460008573ffffffffffffffffffffffffffffffffffffffff1673ffffffffffffffffffffffffffffffffffffffff168152602001908152602001600020600082825401925050819055508273ffffffffffffffffffffffffffffffffffffffff168473ffffffffffffffffffffffffffffffffffffffff167fddf252ad1be2c89b69c2b068fc378daa952ba7f163c4a11628f55a4df523b3ef846040518082815260200191505060405180910390a380600460008573ffffffffffffffffffffffffffffffffffffffff1673ffffffffffffffffffffffffffffffffffffffff16815260200190815260200160002054600460008773ffffffffffffffffffffffffffffffffffffffff1673ffffffffffffffffffffffffffffffffffffffff1681526020019081526020016000205401141515610b5957fe5b505050505600a165627a7a723058200e3285b52eab621c9c4f36d26b1fbba77eb1c374f2fe66bf15ab9fce0cd3614d0029",
  "source": "pragma solidity ^0.4.19;\n\ninterface tokenRecipient {\n  function receiveApproval(\n    address _from, uint256 _value, address _token, bytes _extraData\n  ) external;\n}\n\ncontract REToken {\n    // Public variables of the token\n    uint8 public decimals = 18;\n    // 18 decimals is the strongly suggested default, avoid changing it\n    uint256 public totalSupply;               // How many decimals to show. To be standard complicant keep it 18\n    string public symbol = \"RET\";\n    uint256 public retokenPrice = 200000000000000000;       // 0.2 ether\n\n    // This creates an array with all balances\n    mapping (address => uint256) public balanceOf;\n    mapping (address => mapping (address => uint256)) public allowance;\n\n    // This generates a public event on the blockchain that will notify clients\n    event Transfer(address indexed from, address indexed to, uint256 value);\n\n    // This generates a public event on the blockchain that will notify clients\n    event Approval(address indexed _owner, address indexed _spender, uint256 _value);\n\n    /**\n     * Constructor function\n     *\n     * Initializes contract with initial supply tokens to the creator of the contract\n     */\n    function REToken(uint256 initialSupply) public {\n        totalSupply = initialSupply * 10 ** uint256(decimals);        // Update total supply with the decimal amount\n        balanceOf[this] = totalSupply;                                // Set the symbol for display purposes\n    }\n\n    /**\n     * Internal transfer, only can be called by this contract\n     */\n    function _transfer(address _from, address _to, uint _value) internal {\n        // Prevent transfer to 0x0 address. Use burn() instead\n        require(_to != 0x0);\n        // Check if the sender has enough\n        require(balanceOf[_from] >= _value);\n        // Check for overflows\n        require(balanceOf[_to] + _value >= balanceOf[_to]);\n        // Save this for an assertion in the future\n        uint previousBalances = balanceOf[_from] + balanceOf[_to];\n        // Subtract from the sender\n        balanceOf[_from] -= _value;\n        // Add the same to the recipient\n        balanceOf[_to] += _value;\n        Transfer(_from, _to, _value);\n        // Asserts are used to use static analysis to find bugs in your code. They should never fail\n        assert(balanceOf[_from] + balanceOf[_to] == previousBalances);\n    }\n\n    /**\n     * Transfer tokens\n     *\n     * Send `_value` tokens to `_to` from your account\n     *\n     * @param _to The address of the recipient\n     * @param _value the amount to send\n     */\n    function transfer(address _to, uint256 _value) public returns (bool success) {\n        _transfer(msg.sender, _to, _value);\n        return true;\n    }\n\n    /**\n     * Transfer tokens from other address\n     *\n     * Send `_value` tokens to `_to` on behalf of `_from`\n     *\n     * @param _from The address of the sender\n     * @param _to The address of the recipient\n     * @param _value the amount to send\n     */\n    function transferFrom(address _from, address _to, uint256 _value) public returns (bool success) {\n        require(_value <= allowance[_from][msg.sender]);     // Check allowance\n        allowance[_from][msg.sender] -= _value;\n        _transfer(_from, _to, _value);\n        return true;\n    }\n\n    /**\n     * Set allowance for other address\n     *\n     * Allows `_spender` to spend no more than `_value` tokens on your behalf\n     *\n     * @param _spender The address authorized to spend\n     * @param _value the max amount they can spend\n     */\n    function approve(address _spender, uint256 _value) public\n        returns (bool success) {\n        allowance[msg.sender][_spender] = _value;\n        Approval(msg.sender, _spender, _value);\n        return true;\n    }\n\n    function buy() payable public returns (uint amount) {\n        amount = msg.value / retokenPrice;\n        require(balanceOf[this] >= amount);\n        _transfer(this, msg.sender, amount);\n        return amount;\n    }\n\n    function sell(uint amount) public returns (uint revenue){\n        require(balanceOf[msg.sender] >= amount);\n        _transfer(msg.sender, this, amount);\n        revenue = amount * retokenPrice;\n        require(msg.sender.send(revenue));\n        return revenue;\n    }\n}\n\ncontract EscrowSmartContract {\n  REToken retoken;\n\n  struct Pledge {\n    uint id;\n    address renter;\n    address houseowner;\n    uint amount;\n    bool pickedUp;\n  }\n\n  mapping (uint => Pledge) public pledges;\n  uint pledgeCounter;\n\n  //events\n  event LogPutInPledge(\n    uint indexed _id,\n    address indexed _renter,\n    address indexed _houseowner,\n    uint _amount\n  );\n  event LogPickUpPledge(\n    uint indexed _id,\n    address indexed _renter,\n    address indexed _houseowner,\n    uint _amount\n  );\n\n  function EscrowSmartContract(address _RETokenAddress) public {\n    retoken = REToken(_RETokenAddress);\n  }\n\n  function putInPledge(uint _amount, address _receiver) public {\n    require(retoken.allowance(msg.sender, address(this)) >= _amount);\n    require(retoken.transferFrom(msg.sender, address(this), _amount));\n\n    pledgeCounter++;\n\n    pledges[pledgeCounter] = Pledge(\n      pledgeCounter,\n      msg.sender,\n      _receiver,\n      _amount,\n      false\n    );\n\n    LogPutInPledge(pledgeCounter, msg.sender, _receiver, _amount);\n  }\n\n  function pickUpPledge(uint _id) public {\n    require(_id > 0 && _id <= pledgeCounter);\n    Pledge storage pledge = pledges[_id];\n    require(pledge.houseowner == msg.sender);\n    require(pledge.pickedUp == false);\n\n    require(retoken.transfer(msg.sender, pledge.amount));\n\n    pledge.pickedUp = true;\n\n    LogPickUpPledge(_id, pledge.renter, msg.sender, pledge.amount);\n  }\n\n  //returns pledges ids, putted by msg.sender\n  function getAvailablePledges() public view returns (uint[]) {\n    uint[] memory pledgesId = new uint[](pledgeCounter);\n    uint numberOfAvailablePledges = 0;\n\n    for (uint i = 1; i <= pledgeCounter; i++){\n      if (pledges[i].pickedUp == false){\n        pledgesId[numberOfAvailablePledges] = pledges[i].id;\n        numberOfAvailablePledges++;\n      }\n    }\n\n    uint[] memory availablePledgeIds = new uint[](numberOfAvailablePledges);\n    for(uint j = 0; j < numberOfAvailablePledges; j++){\n      availablePledgeIds[j] = pledgesId[j];\n    }\n\n    return availablePledgeIds;\n  }\n}\n",
  "sourcePath": "/home/userr/EscrowSmartContract/contracts/Contracts.sol",
  "compiler": {
    "name": "solc",
    "version": "0.4.19+commit.c4cbbb05.Emscripten.clang"
  },
  "schemaVersion": "2.0.0",
  "updatedAt": "2018-07-24T20:46:35.735Z"
}